{
  "_format": "hh-sol-artifact-1",
  "contractName": "TokenStake",
  "sourceName": "contracts/TokenStake.sol",
  "abi": [
    {
      "inputs": [
        {
          "internalType": "address",
          "name": "tokenAddress",
          "type": "address"
        },
        {
          "internalType": "address",
          "name": "syntheticToken1Address",
          "type": "address"
        },
        {
          "internalType": "address",
          "name": "syntheticToken2Address",
          "type": "address"
        }
      ],
      "stateMutability": "nonpayable",
      "type": "constructor"
    },
    {
      "anonymous": false,
      "inputs": [
        {
          "indexed": true,
          "internalType": "address",
          "name": "previousOwner",
          "type": "address"
        },
        {
          "indexed": true,
          "internalType": "address",
          "name": "newOwner",
          "type": "address"
        }
      ],
      "name": "OwnershipTransferred",
      "type": "event"
    },
    {
      "anonymous": false,
      "inputs": [
        {
          "indexed": true,
          "internalType": "address",
          "name": "user",
          "type": "address"
        },
        {
          "indexed": false,
          "internalType": "uint256",
          "name": "reward",
          "type": "uint256"
        },
        {
          "indexed": false,
          "internalType": "uint256",
          "name": "timestamp",
          "type": "uint256"
        }
      ],
      "name": "RewardPaid",
      "type": "event"
    },
    {
      "anonymous": false,
      "inputs": [
        {
          "indexed": true,
          "internalType": "bytes32",
          "name": "role",
          "type": "bytes32"
        },
        {
          "indexed": true,
          "internalType": "bytes32",
          "name": "previousAdminRole",
          "type": "bytes32"
        },
        {
          "indexed": true,
          "internalType": "bytes32",
          "name": "newAdminRole",
          "type": "bytes32"
        }
      ],
      "name": "RoleAdminChanged",
      "type": "event"
    },
    {
      "anonymous": false,
      "inputs": [
        {
          "indexed": true,
          "internalType": "bytes32",
          "name": "role",
          "type": "bytes32"
        },
        {
          "indexed": true,
          "internalType": "address",
          "name": "account",
          "type": "address"
        },
        {
          "indexed": true,
          "internalType": "address",
          "name": "sender",
          "type": "address"
        }
      ],
      "name": "RoleGranted",
      "type": "event"
    },
    {
      "anonymous": false,
      "inputs": [
        {
          "indexed": true,
          "internalType": "bytes32",
          "name": "role",
          "type": "bytes32"
        },
        {
          "indexed": true,
          "internalType": "address",
          "name": "account",
          "type": "address"
        },
        {
          "indexed": true,
          "internalType": "address",
          "name": "sender",
          "type": "address"
        }
      ],
      "name": "RoleRevoked",
      "type": "event"
    },
    {
      "anonymous": false,
      "inputs": [
        {
          "indexed": true,
          "internalType": "address",
          "name": "user",
          "type": "address"
        },
        {
          "indexed": false,
          "internalType": "uint256",
          "name": "amount",
          "type": "uint256"
        },
        {
          "indexed": false,
          "internalType": "uint256",
          "name": "timestamp",
          "type": "uint256"
        }
      ],
      "name": "Staked",
      "type": "event"
    },
    {
      "anonymous": false,
      "inputs": [
        {
          "indexed": true,
          "internalType": "address",
          "name": "user",
          "type": "address"
        },
        {
          "indexed": false,
          "internalType": "uint256",
          "name": "amount",
          "type": "uint256"
        },
        {
          "indexed": false,
          "internalType": "uint256",
          "name": "timestamp",
          "type": "uint256"
        }
      ],
      "name": "Unstaked",
      "type": "event"
    },
    {
      "inputs": [],
      "name": "ANNUAL_INTEREST_RATE",
      "outputs": [
        {
          "internalType": "uint256",
          "name": "",
          "type": "uint256"
        }
      ],
      "stateMutability": "view",
      "type": "function"
    },
    {
      "inputs": [],
      "name": "DEFAULT_ADMIN_ROLE",
      "outputs": [
        {
          "internalType": "bytes32",
          "name": "",
          "type": "bytes32"
        }
      ],
      "stateMutability": "view",
      "type": "function"
    },
    {
      "inputs": [
        {
          "internalType": "address",
          "name": "user",
          "type": "address"
        }
      ],
      "name": "calculateReward",
      "outputs": [
        {
          "internalType": "uint256",
          "name": "",
          "type": "uint256"
        }
      ],
      "stateMutability": "view",
      "type": "function"
    },
    {
      "inputs": [],
      "name": "checkMinterRole",
      "outputs": [
        {
          "internalType": "bool",
          "name": "",
          "type": "bool"
        },
        {
          "internalType": "bool",
          "name": "",
          "type": "bool"
        }
      ],
      "stateMutability": "view",
      "type": "function"
    },
    {
      "inputs": [],
      "name": "claimUnstake",
      "outputs": [],
      "stateMutability": "nonpayable",
      "type": "function"
    },
    {
      "inputs": [],
      "name": "getContractBalance",
      "outputs": [
        {
          "internalType": "uint256",
          "name": "",
          "type": "uint256"
        }
      ],
      "stateMutability": "view",
      "type": "function"
    },
    {
      "inputs": [
        {
          "internalType": "bytes32",
          "name": "role",
          "type": "bytes32"
        }
      ],
      "name": "getRoleAdmin",
      "outputs": [
        {
          "internalType": "bytes32",
          "name": "",
          "type": "bytes32"
        }
      ],
      "stateMutability": "view",
      "type": "function"
    },
    {
      "inputs": [
        {
          "internalType": "address",
          "name": "otherContractAddress",
          "type": "address"
        }
      ],
      "name": "grantAdminRoleToContract",
      "outputs": [],
      "stateMutability": "nonpayable",
      "type": "function"
    },
    {
      "inputs": [
        {
          "internalType": "bytes32",
          "name": "role",
          "type": "bytes32"
        },
        {
          "internalType": "address",
          "name": "account",
          "type": "address"
        }
      ],
      "name": "grantRole",
      "outputs": [],
      "stateMutability": "nonpayable",
      "type": "function"
    },
    {
      "inputs": [
        {
          "internalType": "bytes32",
          "name": "role",
          "type": "bytes32"
        },
        {
          "internalType": "address",
          "name": "account",
          "type": "address"
        }
      ],
      "name": "hasRole",
      "outputs": [
        {
          "internalType": "bool",
          "name": "",
          "type": "bool"
        }
      ],
      "stateMutability": "view",
      "type": "function"
    },
    {
      "inputs": [],
      "name": "owner",
      "outputs": [
        {
          "internalType": "address",
          "name": "",
          "type": "address"
        }
      ],
      "stateMutability": "view",
      "type": "function"
    },
    {
      "inputs": [],
      "name": "renounceOwnership",
      "outputs": [],
      "stateMutability": "nonpayable",
      "type": "function"
    },
    {
      "inputs": [
        {
          "internalType": "bytes32",
          "name": "role",
          "type": "bytes32"
        },
        {
          "internalType": "address",
          "name": "account",
          "type": "address"
        }
      ],
      "name": "renounceRole",
      "outputs": [],
      "stateMutability": "nonpayable",
      "type": "function"
    },
    {
      "inputs": [],
      "name": "restake",
      "outputs": [],
      "stateMutability": "nonpayable",
      "type": "function"
    },
    {
      "inputs": [
        {
          "internalType": "bytes32",
          "name": "role",
          "type": "bytes32"
        },
        {
          "internalType": "address",
          "name": "account",
          "type": "address"
        }
      ],
      "name": "revokeRole",
      "outputs": [],
      "stateMutability": "nonpayable",
      "type": "function"
    },
    {
      "inputs": [
        {
          "internalType": "uint256",
          "name": "newRate",
          "type": "uint256"
        }
      ],
      "name": "setAnnualInterestRate",
      "outputs": [],
      "stateMutability": "nonpayable",
      "type": "function"
    },
    {
      "inputs": [
        {
          "internalType": "uint256",
          "name": "amount",
          "type": "uint256"
        }
      ],
      "name": "stake",
      "outputs": [],
      "stateMutability": "nonpayable",
      "type": "function"
    },
    {
      "inputs": [
        {
          "internalType": "address",
          "name": "",
          "type": "address"
        }
      ],
      "name": "stakes",
      "outputs": [
        {
          "internalType": "uint256",
          "name": "amount",
          "type": "uint256"
        },
        {
          "internalType": "uint256",
          "name": "timestamp",
          "type": "uint256"
        },
        {
          "internalType": "uint256",
          "name": "accruedReward",
          "type": "uint256"
        }
      ],
      "stateMutability": "view",
      "type": "function"
    },
    {
      "inputs": [
        {
          "internalType": "bytes4",
          "name": "interfaceId",
          "type": "bytes4"
        }
      ],
      "name": "supportsInterface",
      "outputs": [
        {
          "internalType": "bool",
          "name": "",
          "type": "bool"
        }
      ],
      "stateMutability": "view",
      "type": "function"
    },
    {
      "inputs": [],
      "name": "syntheticToken1",
      "outputs": [
        {
          "internalType": "contract SyntheticToken1",
          "name": "",
          "type": "address"
        }
      ],
      "stateMutability": "view",
      "type": "function"
    },
    {
      "inputs": [],
      "name": "syntheticToken2",
      "outputs": [
        {
          "internalType": "contract SyntheticToken2",
          "name": "",
          "type": "address"
        }
      ],
      "stateMutability": "view",
      "type": "function"
    },
    {
      "inputs": [],
      "name": "token",
      "outputs": [
        {
          "internalType": "contract IERC20",
          "name": "",
          "type": "address"
        }
      ],
      "stateMutability": "view",
      "type": "function"
    },
    {
      "inputs": [],
      "name": "totalStaked",
      "outputs": [
        {
          "internalType": "uint256",
          "name": "",
          "type": "uint256"
        }
      ],
      "stateMutability": "view",
      "type": "function"
    },
    {
      "inputs": [
        {
          "internalType": "address",
          "name": "newOwner",
          "type": "address"
        }
      ],
      "name": "transferOwnership",
      "outputs": [],
      "stateMutability": "nonpayable",
      "type": "function"
    },
    {
      "inputs": [
        {
          "internalType": "uint256",
          "name": "amount",
          "type": "uint256"
        }
      ],
      "name": "unstake",
      "outputs": [],
      "stateMutability": "nonpayable",
      "type": "function"
    },
    {
      "inputs": [
        {
          "internalType": "address",
          "name": "",
          "type": "address"
        }
      ],
      "name": "unstakeRequests",
      "outputs": [
        {
          "internalType": "uint256",
          "name": "amount",
          "type": "uint256"
        },
        {
          "internalType": "uint256",
          "name": "timestamp",
          "type": "uint256"
        }
      ],
      "stateMutability": "view",
      "type": "function"
    },
    {
      "inputs": [
        {
          "internalType": "uint256",
          "name": "amount",
          "type": "uint256"
        }
      ],
      "name": "withdraw",
      "outputs": [],
      "stateMutability": "nonpayable",
      "type": "function"
    }
  ],
  "bytecode": "0x608060405261012c6007553480156200001757600080fd5b5060405162001fa538038062001fa58339810160408190526200003a9162000240565b60016000556200004a336200011d565b6001600160a01b038316158015906200006b57506001600160a01b03821615155b80156200008057506001600160a01b03811615155b620000c35760405162461bcd60e51b815260206004820152600f60248201526e496e76616c6964206164647265737360881b604482015260640160405180910390fd5b600380546001600160a01b038086166001600160a01b0319928316179092556004805485841690831617905560058054928416929091169190911790556200011460006200010e3390565b6200016f565b5050506200028a565b600180546001600160a01b038381166001600160a01b0319831681179093556040519116919082907f8be0079c531659141344cd1fd0a4f28419497f9722a3daafe3b4186f6b6457e090600090a35050565b6200017b82826200017f565b5050565b60008281526002602090815260408083206001600160a01b038516845290915290205460ff166200017b5760008281526002602090815260408083206001600160a01b03851684529091529020805460ff19166001179055620001df3390565b6001600160a01b0316816001600160a01b0316837f2f8788117e7eff1d82e926ec794901d17c78024a50270940304540a733656f0d60405160405180910390a45050565b80516001600160a01b03811681146200023b57600080fd5b919050565b6000806000606084860312156200025657600080fd5b620002618462000223565b9250620002716020850162000223565b9150620002816040850162000223565b90509250925092565b611d0b806200029a6000396000f3fe608060405234801561001057600080fd5b50600436106101a95760003560e01c8063715018a6116100f9578063b678339311610097578063d82e396211610071578063d82e3962146103a6578063e0eb4d2e146103b9578063f2fde38b146103f5578063fc0c546a1461040857600080fd5b8063b678339314610377578063d053b1ac14610380578063d547741f1461039357600080fd5b80638f5f4f5a116100d35780638f5f4f5a1461033657806391d1485414610349578063a217fddf1461035c578063a694fc3a1461036457600080fd5b8063715018a614610314578063817b1cd21461031c5780638da5cb5b1461032557600080fd5b80632f2ff15d1161016657806336568abe1161014057806336568abe146102d25780634b22c9ab146102e55780634f91440d146103045780636f9fb98a1461030c57600080fd5b80632f2ff15d1461028157806332a61ddf146102945780633582c4c8146102bf57600080fd5b806301ffc9a7146101ae5780630a3ec230146101d657806316934fc4146101e0578063248a9ca31461022a5780632e17de781461025b5780632e1a7d4d1461026e575b600080fd5b6101c16101bc366004611a54565b61041b565b60405190151581526020015b60405180910390f35b6101de610452565b005b61020f6101ee366004611a9a565b60086020526000908152604090208054600182015460029092015490919083565b604080519384526020840192909252908201526060016101cd565b61024d610238366004611ab5565b60009081526002602052604090206001015490565b6040519081526020016101cd565b6101de610269366004611ab5565b6106ec565b6101de61027c366004611ab5565b6108c1565b6101de61028f366004611ace565b6109b4565b6005546102a7906001600160a01b031681565b6040516001600160a01b0390911681526020016101cd565b6101de6102cd366004611ab5565b6109de565b6101de6102e0366004611ace565b6109eb565b6102ed610a65565b6040805192151583529015156020830152016101cd565b6101de610c26565b61024d610d2f565b6101de610da1565b61024d60065481565b6001546001600160a01b03166102a7565b6101de610344366004611a9a565b610db3565b6101c1610357366004611ace565b610dc6565b61024d600081565b6101de610372366004611ab5565b610df1565b61024d60075481565b6004546102a7906001600160a01b031681565b6101de6103a1366004611ace565b6110ff565b61024d6103b4366004611a9a565b611124565b6103e06103c7366004611a9a565b6009602052600090815260409020805460019091015482565b604080519283526020830191909152016101cd565b6101de610403366004611a9a565b6111c0565b6003546102a7906001600160a01b031681565b60006001600160e01b03198216637965db0b60e01b148061044c57506301ffc9a760e01b6001600160e01b03198316145b92915050565b61045a611236565b336000908152600960205260409020546104bb5760405162461bcd60e51b815260206004820152601860248201527f4e6f20756e7374616b65207265717565737420666f756e64000000000000000060448201526064015b60405180910390fd5b336000908152600960205260409020600101546104dc906201518090611b10565b42101561052b5760405162461bcd60e51b815260206004820152601d60248201527f556e7374616b6520706572696f64206e6f74207965742070617373656400000060448201526064016104b2565b336000908152600960209081526040808320805490849055600890925280832060020180549084905560035491516370a0823160e01b81523060048201529293909290916001600160a01b0316906370a0823190602401602060405180830381865afa15801561059f573d6000803e3d6000fd5b505050506040513d601f19601f820116820180604052508101906105c39190611b23565b90506105cf8284611b10565b81101561061e5760405162461bcd60e51b815260206004820152601d60248201527f496e73756666696369656e7420636f6e74726163742062616c616e636500000060448201526064016104b2565b61063f3361062c8486611b10565b6003546001600160a01b0316919061128f565b60055460405163079cc67960e41b8152336004820152602481018490526001600160a01b03909116906379cc679090604401600060405180830381600087803b15801561068b57600080fd5b505af115801561069f573d6000803e3d6000fd5b5050604080518581524260208201523393507fd6f2c8500df5b44f11e9e48b91ff9f1b9d81bc496d55570c2b1b75bf65243f5192500160405180910390a25050506106ea6001600055565b565b6106f4611236565b600081116107445760405162461bcd60e51b815260206004820152601d60248201527f416d6f756e74206d7573742062652067726561746572207468616e203000000060448201526064016104b2565b3360009081526008602052604090205481111561079c5760405162461bcd60e51b8152602060048201526016602482015275125b9d985b1a59081d5b9cdd185ad948185b5bdd5b9d60521b60448201526064016104b2565b6107a5336112f2565b33600090815260086020526040812080548392906107c4908490611b3c565b9250508190555080600660008282546107dd9190611b3c565b909155505060408051808201825282815242602080830191825233600081815260099092529084902092518355905160019092019190915560048054925163079cc67960e41b815290810191909152602481018390526001600160a01b03909116906379cc679090604401600060405180830381600087803b15801561086257600080fd5b505af1158015610876573d6000803e3d6000fd5b5050604080518481524260208201523393507f7fc4727e062e336010f2c282598ef5f14facb3de68cf8195c2f23e1454b2b74e92500160405180910390a26108be6001600055565b50565b6108c96113f6565b6003546040516370a0823160e01b81523060048201526000916001600160a01b0316906370a0823190602401602060405180830381865afa158015610912573d6000803e3d6000fd5b505050506040513d601f19601f820116820180604052508101906109369190611b23565b9050818110156109885760405162461bcd60e51b815260206004820152601d60248201527f4e6f7420656e6f75676820746f6b656e7320746f20776974686472617700000060448201526064016104b2565b6109b061099d6001546001600160a01b031690565b6003546001600160a01b0316908461128f565b5050565b6000828152600260205260409020600101546109cf81611450565b6109d9838361145a565b505050565b6109e66113f6565b600755565b6001600160a01b0381163314610a5b5760405162461bcd60e51b815260206004820152602f60248201527f416363657373436f6e74726f6c3a2063616e206f6e6c792072656e6f756e636560448201526e103937b632b9903337b91039b2b63360891b60648201526084016104b2565b6109b082826114e0565b600480546040805163d539139360e01b8152905160009384936001600160a01b0316926391d1485492849263d5391393928082019260209290918290030181865afa158015610ab8573d6000803e3d6000fd5b505050506040513d601f19601f82011682018060405250810190610adc9190611b23565b6040516001600160e01b031960e084901b1681526004810191909152306024820152604401602060405180830381865afa158015610b1e573d6000803e3d6000fd5b505050506040513d601f19601f82011682018060405250810190610b429190611b4f565b6005546040805163d539139360e01b815290516001600160a01b03909216916391d1485491839163d5391393916004808201926020929091908290030181865afa158015610b94573d6000803e3d6000fd5b505050506040513d601f19601f82011682018060405250810190610bb89190611b23565b6040516001600160e01b031960e084901b1681526004810191909152306024820152604401602060405180830381865afa158015610bfa573d6000803e3d6000fd5b505050506040513d601f19601f82011682018060405250810190610c1e9190611b4f565b915091509091565b610c2e611236565b610c37336112f2565b3360009081526008602052604090206002015480610c8f5760405162461bcd60e51b81526020600482015260156024820152744e6f207265776172647320746f2072657374616b6560581b60448201526064016104b2565b3360009081526008602052604081208054839290610cae908490611b10565b925050819055508060066000828254610cc79190611b10565b90915550503360008181526008602052604080822060020191909155517f1449c6dd7851abc30abf37f57715f492010519147cc2652fbc38202c18a6ee9090610d1c9084904290918252602082015260400190565b60405180910390a2506106ea6001600055565b6003546040516370a0823160e01b81523060048201526000916001600160a01b0316906370a0823190602401602060405180830381865afa158015610d78573d6000803e3d6000fd5b505050506040513d601f19601f82011682018060405250810190610d9c9190611b23565b905090565b610da96113f6565b6106ea6000611547565b610dbb6113f6565b6108be600082611599565b60009182526002602090815260408084206001600160a01b0393909316845291905290205460ff1690565b610df9611236565b3381610e475760405162461bcd60e51b815260206004820152601d60248201527f416d6f756e74206d7573742062652067726561746572207468616e203000000060448201526064016104b2565b6003546040516370a0823160e01b81526001600160a01b038381166004830152849216906370a0823190602401602060405180830381865afa158015610e91573d6000803e3d6000fd5b505050506040513d601f19601f82011682018060405250810190610eb59190611b23565b1015610f035760405162461bcd60e51b815260206004820152601a60248201527f496e73756666696369656e7420746f6b656e2062616c616e636500000000000060448201526064016104b2565b600354604051636eb1769f60e11b81526001600160a01b0383811660048301523060248301528492169063dd62ed3e90604401602060405180830381865afa158015610f53573d6000803e3d6000fd5b505050506040513d601f19601f82011682018060405250810190610f779190611b23565b1015610fc55760405162461bcd60e51b815260206004820152601d60248201527f546f6b656e20616c6c6f77616e6365206973206e6f7420656e6f75676800000060448201526064016104b2565b610fce816112f2565b6001600160a01b03811660009081526008602052604081208054849290610ff6908490611b10565b90915550506001600160a01b0381166000908152600860205260408120426001909101556006805484929061102c908490611b10565b9091555050600354611049906001600160a01b03163330856115a3565b600480546040516340c10f1960e01b81526001600160a01b0384811693820193909352602481018590529116906340c10f1990604401600060405180830381600087803b15801561109957600080fd5b505af11580156110ad573d6000803e3d6000fd5b5050604080518581524260208201526001600160a01b03851693507f1449c6dd7851abc30abf37f57715f492010519147cc2652fbc38202c18a6ee9092500160405180910390a2506108be6001600055565b60008281526002602052604090206001015461111a81611450565b6109d983836114e0565b6001600160a01b03811660009081526008602052604081206001810154829061114d9042611b3c565b905060008111801561115f5750815415155b156111b55760006111766103e86301e13380611b71565b6007548454849161118691611b71565b6111909190611b71565b61119a9190611b88565b90508083600201546111ac9190611b10565b95945050505050565b506002015492915050565b6111c86113f6565b6001600160a01b03811661122d5760405162461bcd60e51b815260206004820152602660248201527f4f776e61626c653a206e6577206f776e657220697320746865207a65726f206160448201526564647265737360d01b60648201526084016104b2565b6108be81611547565b6002600054036112885760405162461bcd60e51b815260206004820152601f60248201527f5265656e7472616e637947756172643a207265656e7472616e742063616c6c0060448201526064016104b2565b6002600055565b6040516001600160a01b0383166024820152604481018290526109d990849063a9059cbb60e01b906064015b60408051601f198184030181529190526020810180516001600160e01b03166001600160e01b0319909316929092179091526115e1565b6001600160a01b0381166000908152600860205260408120600181015490919061131c9042611b3c565b905060008111801561132e5750815415155b156109d95760006113456103e86301e13380611b71565b6007548454849161135591611b71565b61135f9190611b71565b6113699190611b88565b90508083600201600082825461137f9190611b10565b90915550504260018401556005546040516340c10f1960e01b81526001600160a01b03868116600483015260248201849052909116906340c10f1990604401600060405180830381600087803b1580156113d857600080fd5b505af11580156113ec573d6000803e3d6000fd5b5050505050505050565b6001546001600160a01b031633146106ea5760405162461bcd60e51b815260206004820181905260248201527f4f776e61626c653a2063616c6c6572206973206e6f7420746865206f776e657260448201526064016104b2565b6108be81336116b6565b6114648282610dc6565b6109b05760008281526002602090815260408083206001600160a01b03851684529091529020805460ff1916600117905561149c3390565b6001600160a01b0316816001600160a01b0316837f2f8788117e7eff1d82e926ec794901d17c78024a50270940304540a733656f0d60405160405180910390a45050565b6114ea8282610dc6565b156109b05760008281526002602090815260408083206001600160a01b0385168085529252808320805460ff1916905551339285917ff6391f5c32d9c69d2a47ea670b442974b53935d1edc7fd64eb21e047a839171b9190a45050565b600180546001600160a01b038381166001600160a01b0319831681179093556040519116919082907f8be0079c531659141344cd1fd0a4f28419497f9722a3daafe3b4186f6b6457e090600090a35050565b6109b0828261145a565b6040516001600160a01b03808516602483015283166044820152606481018290526115db9085906323b872dd60e01b906084016112bb565b50505050565b6000611636826040518060400160405280602081526020017f5361666545524332303a206c6f772d6c6576656c2063616c6c206661696c6564815250856001600160a01b031661170f9092919063ffffffff16565b90508051600014806116575750808060200190518101906116579190611b4f565b6109d95760405162461bcd60e51b815260206004820152602a60248201527f5361666545524332303a204552433230206f7065726174696f6e20646964206e6044820152691bdd081cdd58d8d9595960b21b60648201526084016104b2565b6116c08282610dc6565b6109b0576116cd81611726565b6116d8836020611738565b6040516020016116e9929190611bce565b60408051601f198184030181529082905262461bcd60e51b82526104b291600401611c43565b606061171e84846000856118db565b949350505050565b606061044c6001600160a01b03831660145b60606000611747836002611b71565b611752906002611b10565b67ffffffffffffffff81111561176a5761176a611c76565b6040519080825280601f01601f191660200182016040528015611794576020820181803683370190505b509050600360fc1b816000815181106117af576117af611c8c565b60200101906001600160f81b031916908160001a905350600f60fb1b816001815181106117de576117de611c8c565b60200101906001600160f81b031916908160001a9053506000611802846002611b71565b61180d906001611b10565b90505b6001811115611885576f181899199a1a9b1b9c1cb0b131b232b360811b85600f166010811061184157611841611c8c565b1a60f81b82828151811061185757611857611c8c565b60200101906001600160f81b031916908160001a90535060049490941c9361187e81611ca2565b9050611810565b5083156118d45760405162461bcd60e51b815260206004820181905260248201527f537472696e67733a20686578206c656e67746820696e73756666696369656e7460448201526064016104b2565b9392505050565b60608247101561193c5760405162461bcd60e51b815260206004820152602660248201527f416464726573733a20696e73756666696369656e742062616c616e636520666f6044820152651c8818d85b1b60d21b60648201526084016104b2565b600080866001600160a01b031685876040516119589190611cb9565b60006040518083038185875af1925050503d8060008114611995576040519150601f19603f3d011682016040523d82523d6000602084013e61199a565b606091505b50915091506119ab878383876119b6565b979650505050505050565b60608315611a25578251600003611a1e576001600160a01b0385163b611a1e5760405162461bcd60e51b815260206004820152601d60248201527f416464726573733a2063616c6c20746f206e6f6e2d636f6e747261637400000060448201526064016104b2565b508161171e565b61171e8383815115611a3a5781518083602001fd5b8060405162461bcd60e51b81526004016104b29190611c43565b600060208284031215611a6657600080fd5b81356001600160e01b0319811681146118d457600080fd5b80356001600160a01b0381168114611a9557600080fd5b919050565b600060208284031215611aac57600080fd5b6118d482611a7e565b600060208284031215611ac757600080fd5b5035919050565b60008060408385031215611ae157600080fd5b82359150611af160208401611a7e565b90509250929050565b634e487b7160e01b600052601160045260246000fd5b8082018082111561044c5761044c611afa565b600060208284031215611b3557600080fd5b5051919050565b8181038181111561044c5761044c611afa565b600060208284031215611b6157600080fd5b815180151581146118d457600080fd5b808202811582820484141761044c5761044c611afa565b600082611ba557634e487b7160e01b600052601260045260246000fd5b500490565b60005b83811015611bc5578181015183820152602001611bad565b50506000910152565b7f416363657373436f6e74726f6c3a206163636f756e7420000000000000000000815260008351611c06816017850160208801611baa565b7001034b99036b4b9b9b4b733903937b6329607d1b6017918401918201528351611c37816028840160208801611baa565b01602801949350505050565b6020815260008251806020840152611c62816040850160208701611baa565b601f01601f19169190910160400192915050565b634e487b7160e01b600052604160045260246000fd5b634e487b7160e01b600052603260045260246000fd5b600081611cb157611cb1611afa565b506000190190565b60008251611ccb818460208701611baa565b919091019291505056fea264697066735822122069cbf553a902c99f21048fe689bc5b99f7daa0a20a1ebacb0b121c1ea02aa76664736f6c63430008140033",
  "linkReferences": {},
  "deployedLinkReferences": {}
}